{
  "address": "0x44F1C44891982d6Ca9297547a8Ee4a39c97a4D18",
  "abi": [
    {
      "inputs": [],
      "name": "count",
      "outputs": [
        {
          "internalType": "uint256",
          "name": "",
          "type": "uint256"
        }
      ],
      "stateMutability": "view",
      "type": "function"
    },
    {
      "inputs": [],
      "name": "getCount",
      "outputs": [
        {
          "internalType": "uint256",
          "name": "",
          "type": "uint256"
        }
      ],
      "stateMutability": "view",
      "type": "function"
    },
    {
      "inputs": [],
      "name": "increment",
      "outputs": [],
      "stateMutability": "nonpayable",
      "type": "function"
    }
  ],
  "transactionHash": "0xa135206e31855b65bb3fff5b83fabdb41ac1a81a732656b59f5041fbadba03e7",
  "args": [],
  "numDeployments": 1,
  "solcInputHash": "d7baa0199bceeee099a8d74b8778302b",
  "bytecode": "0x6080806040523460145760fc908161001a8239f35b600080fdfe6080806040526004361015601257600080fd5b60003560e01c90816306661abd1460ad57508063a87d942c1460915763d09de08a14603c57600080fd5b34608c576000366003190112608c5760005460018101809111605d57600055005b7f4e487b7100000000000000000000000000000000000000000000000000000000600052601160045260246000fd5b600080fd5b34608c576000366003190112608c576020600054604051908152f35b34608c576000366003190112608c576020906000548152f3fea264697066735822122076ff53790ca577af1d712711de5fb0d66890861dc938dce2b511dc469934643664736f6c634300081c0033",
  "devdoc": {
    "kind": "dev",
    "methods": {},
    "version": 1
  },
  "userdoc": {
    "kind": "user",
    "methods": {},
    "version": 1
  },
  "storageLayout": {
    "storage": [
      {
        "astId": 789,
        "contract": "contracts/Counter.sol:Counter",
        "label": "count",
        "offset": 0,
        "slot": "0",
        "type": "t_uint256"
      }
    ],
    "types": {
      "t_uint256": {
        "encoding": "inplace",
        "label": "uint256",
        "numberOfBytes": "32"
      }
    }
  }
}